:02000002B0004C
:1040000000400B00EC5B0B00000006000C000502FA
:0840100004010410000000008F
:0440180000590B0040
:1040200009480A49884208B505D0094A824202D0A7
:10403000121A01F0B3FB0748074A0021121A01F0D7
:10404000BBFB014808BD00BF38E60320585B0B00EE
:10405000A4E60320A4E60320EDE7032070B5074E95
:10406000074C00F00FFEA41BA4080025AC4200D1B1
:1040700070BD56F8043B98470135F7E7045B0B0029
:10408000285B0B0000F014B808B500F025F8BDE877
:10409000084000F0AFBD00F01FBA00F025BA00786C
:1040A000B0FA80F0400970470123037070470000A8
:1040B00010B50121022000F055FEBDE81040034973
:1040C00003480023022200F097B900BFB0E60320A6
:1040D00014590B000000000008B5132000F053FE37
:1040E000174B186001F0B0F811A3D3E9002301F0D9
:1040F00015F911A3D3E9002301F03AFA00220023B5
:1041000000F056FF41EC100B00F0FCFE51EC100BE0
:1041100001F016FB0B4B01461860022000F04AFE2E
:10412000BDE808404FF47A7000F0F6B9AFF30080B4
:104130000000000000E06F400000000000FEAF4003
:10414000B4E60320B0E6032010B5074B074A9A6097
:104150000024C3E90044032000F022F92146012095
:10416000BDE8104000F02CB9A4E603200000FFFFDA
:1041700008B5024B1B685B6C019308BD4802030045
:1041800008B5024B1B685B68019308BD1802030069
:1041900008B5024B1B685B69019308BD1802030058
:1041A00008B5024B1B685B68019308BD2C02030035
:1041B00008B5024B1B689B68019308BD2C020300E5
:1041C00008B5024B1B68DB68019308BD2C02030095
:1041D00008B5024B1B689B6A019308BD2C020300C3
:1041E00008B5024B1B681B6B019308BD2C02030032
:1041F00008B5024B1B689B6F019308BD2C0203009E
:1042000008B5024B1B681B6A019308BD2802030016
:1042100008B5024B1B685B6A019308BD28020300C6
:1042200008B5024B1B689B6A019308BD2802030076
:1042300008B5024B1B68DB6A019308BD2802030026
:1042400008B5024B1B681B6B019308BD28020300D5
:1042500008B5024B1B685B6B019308BD2802030085
:1042600008B5024B1B681B6C019308BD28020300B4
:1042700008B5024B1B685B69019308BD640203002B
:1042800008B5024B1B689B68019308BD68020300D8
:1042900008B5024B1B68DB68019308BD6802030088
:1042A00008B5024B1B68DB69019308BD30020300AF
:1042B00008B5024B1B681B6A019308BD300203005E
:1042C00008B5024B1B68DB68019308BD3C02030084
:1042D00008B5024B1B681B69019308BD3C02030033
:1042E00008B5024B1B685B69019308BD3C020300E3
:1042F00008B5024B1B689B69019308BD3C02030093
:1043000008B5024B1B68DB69019308BD3C02030042
:1043100008B5024B1B681B6A019308BD3C020300F1
:1043200008B5024B1B689B6A019308BD3C02030061
:1043300008B5024B1B681B6C019308BD3C020300CF
:1043400008B5024B1B681B68019308BD4C020300B3
:1043500008B5024B1B681B69019308BD4C020300A2
:1043600008B5024B1B685B69019308BD4C02030052
:1043700008B5024B1B689B69019308BD4C02030002
:1043800008B5024B1B68DB69019308BD4C020300B2
:1043900008B5024B1B681B6A019308BD4C02030061
:1043A00008B5024B1B685B68019308BD200203003F
:1043B00008B5024B1B685B69019308BD200203002E
:1043C00008B5024B1B68DB6A019308BD200203009D
:1043D00008B5034B1B68D3F88830019308BD000073
:1043E0002002030008B5034B1B68D3F894300193F7
:1043F00008BD00002002030008B5024B1B681B68C3
:10440000019308BD4402030008B5024B1B68DB6B37
:10441000019308BD4402030008B5024B1B685B68AA
:10442000019308BD4002030008B5024B1B689B685E
:10443000019308BD4002030008B5024B1B68DB680E
:10444000019308BD4002030008B5024B1B681B69BD
:10445000019308BD4002030008B5024B1B685B696D
:10446000019308BD4002030008B5024B1B689B691D
:10447000019308BD4002030008B5024B1B68DB69CD
:10448000019308BD4002030008B5024B1B681B6A7C
:10449000019308BD4002030008B5024B1B681B6B6B
:1044A000019308BD4002030008B5024B1B685B6B1B
:1044B000019308BD4002030008B5024B1B681B6C4A
:1044C000019308BD4002030008B5024B1B685B6CFA
:1044D000019308BD4002030008B5024B1B681B682E
:1044E000019308BD1C02030008B5024B1B685B6802
:1044F000019308BD1C02030008B5024B1B681B6C2E
:10450000019308BD1C02030008B5024B1B685B6CDD
:10451000019308BD1C0203000021FFF749BF000002
:10452000024800230360FFF723BE00BFB8E6032064
:10453000002240681146FFF7A7BF002240681146DD
:10454000FFF7B2BF40680022FFF7A6BF4068002215
:1045500081F00101FFF790BF002340681A46194619
:10456000FFF782BF002340681A461946FFF774BF61
:10457000002240681146FFF767BF002240681146DD
:10458000FFF752BF406800220221FFF755BF00230A
:1045900040681A46FFF740BF024B03225A60024AA6
:1045A0001A607047BCE6032028590B007047F8B525
:1045B000064615460C468F18BC4206D0336814F8E0
:1045C000011B9B6830469847F6E72846F8BD007CFB
:1045D0000022FFF715BE007C0021FFF719BE007C0A
:1045E0000021FFF71DBE007C0021FFF721BE007CEB
:1045F0000021FFF725BE10B514210446FFF74DFD3D
:10460000204610BD38B5044615464FF47A73002293
:10461000C4E90123094B2174084623602946FFF7AA
:104620001FFEBF3008D16B69DB0705D56868FFF74F
:104630005BFFE868FFF758FF204638BD64590B0060
:10464000704710B518210446FFF727FD204610BD1E
:10465000F0B5037D062B8DB00E4600F104074FF038
:10466000000412D000F1080515F8011D0A22304699
:1046700000F043F9AF42044419D0002CF4D02E21AD
:10468000304600F037F90444EEE72F236A463946F6
:104690000A208DF80040FFF7EBFD684601F0C2F8F4
:1046A00033680246DB686946304698470446204630
:1046B0000DB0F0BD10B5054B0446112240F8043B87
:1046C000002101F079F8204610BD00BF8C590B0085
:1046D0000346074A10B543F8042B01F1100251F8C4
:1046E000044B43F8044B9142F9D10A781A7010BD7B
:1046F0008C590B0010B59DF8084044EA032343EAA7
:10470000024242EA016104234160037510BD0000CA
:1047100007B5064B0360CB7800938B784A7809780D
:10472000FFF7E8FF03B05DF804FB00BF8C590B00F6
:10473000014B024A1A607047C4E6032098590B00E7
:10474000002340681A46FFF767BE40680022022136
:10475000FFF772BE002240681146FFF765BE0022D7
:1047600040681146FFF770BE002340681A4619469C
:10477000FFF772BE002340681A461946FFF774BE61
:1047800040680021FFF798BE40680021FFF79CBEFB
:104790004068002281F00101FFF76EBE40680022F0
:1047A000FFF77ABE002240681146FFF77DBE002267
:1047B00040681146FFF768BE2DE9F04395B01446F6
:1047C0000D460746FFF776FF00211C220DA8009139
:1047D00000F0F2FF40230C9320466B460CAA002108
:1047E000FFF756FD044600284BD1024601216868B8
:1047F000FFF72AFE0221804622466868FFF724FE62
:10480000009E81462146002E3BD0002939D1736895
:10481000022B03D00A2B11D0F669F4E7B8F1000F90
:10482000FAD0716906A8043107ADFFF771FF0FCD0B
:104830003C1D0FC42B6823704146EDE7B9F1000F12
:10484000EAD07469102201A800F0B6FF06238DF8A3
:10485000143001AD04F108031834186859682A4669
:1048600003C20833A3421546F7D101A906A807AD34
:10487000FFF72EFF0FCD3C1D0FC42B682370494658
:10488000CAE70098FFF7FCFC384615B0BDE8F08396
:10489000024B034A1A6000225A607047C8E60320A0
:1048A000A4590B00F8B506460D468F180024BD42EA
:1048B0000CD0336815F8011B9B6830469847031EDF
:1048C00001DB1C44F3E7002C08BF1C462046F8BD62
:1048D00013B50446084659B1019100F0A3FF2368BF
:1048E0000199DB680246204602B0BDE81040184737
:1048F00002B010BD03689B68184730B58BB0002329
:10490000012A8DF8243098BF0A2209AC0D46B1FB6C
:10491000F2F101FB125303F0FF03092B94BF303374
:104920003733DBB2AA4204F8013DEFD92146FFF745
:10493000CFFF0BB030BD0000014B00229A607047E2
:10494000D0E6032010B5044608462170FFF7A8FC06
:1049500000236360204610BD054B02221A60054B00
:10496000054A9A600020C3E90000FFF719BD00BFA7
:10497000ECE60320E0E603200000FFFF024B1A688C
:10498000024B1A60704700BF38E60320F0E60320B0
:1049900070474174704708B5007CFFF7C1FC20EAFE
:1049A000E07008BD08B5007CFFF792FC20EAE070DB
:1049B00008BD08B5007CFFF79BFC40EAE07008BD2D
:1049C00008B5007CFFF78CFC40EAE07008BD007C75
:1049D000FFF796BC37B5457C04462DB1207C03B06B
:1049E000BDE83040FFF76CBC007C0191FFF798FCFC
:1049F00000280199F2DC284603B030BD10B514211F
:104A00000446FFF74AFB204610BD000010B54FF4E6
:104A10007A730446084611460022C4E90123044B78
:104A20002360012320746374FFF782FC204610BDCD
:104A3000FC590B00417470477047704708B500215E
:104A4000007CFFF795FC40EAE07008BD08B5012145
:104A5000007CFFF78DFC40EAE07008BD08B5007CE3
:104A6000FFF77EFC20EAE07008BD08B5007CFFF788
:104A70006FFC20EAE07008BD13B50446007C01918C
:104A8000FFF76EFC0028019901DC607C20B1207CDE
:104A9000FFF776FC20EAE07002B010BD007CFFF763
:104AA00077BC10B514210446FFF7F7FA204610BD75
:104AB00010B54FF47A73044608460021C4E9011387
:104AC000044B23600123207463741146FFF738FC04
:104AD000204610BD2C5A0B0010B5142204460021AC
:104AE00000F06AFE204610BD10B50F4C88B003A838
:104AF000FFF7F2FF2178BFF35B8F11F001010FD1B7
:104B000020460191FFF7CBFA019948B103AA074863
:104B1000FFF7CEFF2046FFF7C7FA054800F038FE42
:104B2000024808B010BD00BFF4E60320F8E60320F9
:104B3000394A0B00002240681146FFF785BC00226D
:104B400040681146FFF7A0BC002240681146FFF7FD
:104B5000ABBC40680022FFF79FBC4068002281F098
:104B60000101FFF789BC002340681A461946FFF788
:104B70007BBC002340681A461946FFF76DBC002233
:104B800040681146FFF750BC406800220221FFF741
:104B900053BC002340681A46FFF73EBC024B042278
:104BA0005A60024A1A6070470CE703205C5A0B00F7
:104BB000014B1860704700BF3CE6032008B50B4B63
:104BC00043B1FFF791FF03681B699847002801DD97
:104BD000AFF30080064B43B100F06EF903681B6928
:104BE0009847002801DDAFF3008008BD00000000F9
:104BF0000000000008B5FFF7E1FFFFF7C9FA014B1D
:104C0000186008BD28E703200548064A064908B58C
:104C1000121A00F0C3FD054B054A1A6008BD00BF1B
:104C200000F4032004F40320545B0B0000F4032081
:104C30001E1C279A07B5002300931A466FF07701D0
:104C4000FFF7D0FB03B05DF804FB000007B5438815
:104C50000A2B08D0502B0BD1094B1B684BB103B06A
:104C60005DF804EB1847FFF7E5FF03B05DF804FBC0
:104C7000002300931A466FF07701FFF7B3FBF4E7C8
:104C800018E7032010B512480021FFF73DFC114B37
:104C90001A68114B9A42114B0CBF012200221A7064
:104CA00001D0FFF7B1FFFFF76BFA044600F08CFD6F
:104CB0000B4B13B12046AFF3008000210848FFF7EB
:104CC000A3FBBDE8104007480021FFF781BB00BFF0
:104CD000B14B0B0000F403201E1C279A14E703209D
:104CE000000000004D4C0B00232813B502D9002012
:104CF00002B010BDA0F10B03022B1AD8174C21787B
:104D0000BFF35B8F11F001010BD120460191FFF73A
:104D1000C6F9019928B11248FFF714FE2046FFF7A3
:104D2000C3F90F4B1878FFF7C3FA0028DFD1012031
:104D3000DEE7012809D800F07FF80021007CFFF7AA
:104D400087FA80F00100C0B2D2E709380128EED816
:104D500000F0B2F8007CFFF7DBFAF2E71CE7032073
:104D600020E70320232838B504460D460AD8FF293A
:104D700008D0FFF7B9FF28B129462046BDE83840E2
:104D8000FFF716BA38BD0D2810B504469CBF0E3487
:104D9000A4B22046FFF7A8FF50B103212046FFF739
:104DA000FFF9032804D12046BDE81040FFF718BAE8
:104DB000002010BD38B504460D46FFF795FFF0B151
:104DC00004212046FFF7ECF9042805D1A9B22046BA
:104DD000BDE83840FFF7FCB902212046FFF7E0F9B3
:104DE00002280CD12046FFF7EBF9012801D0042856
:104DF00005D129462046BDE83840FFF7F9B938BD4E
:104E00007047000038B50A4B036001230446436134
:104E10000849202000F074F8202560600549A5604D
:104E2000284600F06DF8C4E90305204638BD00BFF0
:104E300018000100905A0B0030B50E4D2978BFF3D1
:104E40005B8F11F0010487B011D12846FFF727F9D5
:104E500068B16846FFF7D6FF6A4621460648FFF765
:104E6000D1FB2846FFF720F9044800F091FC0248E6
:104E700007B030BD2CE7032030E70320014E0B00C4
:104E80007047000038B5044614252A46002100F07A
:104E900093FC25804025074925812846258200F07E
:104EA0002FF804496060284600F02AF8E0602046A8
:104EB00038BD00BF905A0B0030B50E4D2978BFF3B6
:104EC0005B8F11F0010487B011D12846FFF7E7F896
:104ED00068B101A8FFF7D6FF01AA21460648FFF7EF
:104EE00095FD2846FFF7E0F8044800F051FC024821
:104EF00007B030BD44E7032048E70320814E0B0094
:104F0000FFF7C9B853EC102BC3F30A5CACF2FF31C6
:104F1000132910B510EE100A9E4622DC002909DB89
:104F20001F4C44FA01FC03EA0C04204310D143EC6B
:104F3000102B10BD03F0004E013104BF4EF07F5E18
:104F40004EF4401E00207346024643EC102B10BD69
:104F50004FF4002343FA01F18E442EEA0C0E002098
:104F6000F1E7332908DDB1F5806FE0D1194600F093
:104F70001FF841EC100B10BDACF2134C4FF0FF3496
:104F800024FA0CFC12EA0C0FD1D00123C1F1330139
:104F900003FA01F1401828BF9E4420EA0C00D2E732
:104FA000FFFF0F0081F0004102E000BF83F00043EB
:104FB00030B54FEA41044FEA430594EA050F08BFB4
:104FC00090EA020F1FBF54EA000C55EA020C7FEA78
:104FD000645C7FEA655C00F0E2804FEA5454D4EBF5
:104FE0005555B8BF6D420CDD2C4480EA020281EABF
:104FF000030382EA000083EA010180EA020281EAF7
:105000000303362D88BF30BD11F0004F4FEA013148
:105010004FF4801C4CEA113102D0404261EB410157
:1050200013F0004F4FEA03334CEA133302D05242DD
:1050300063EB430394EA050F00F0A780A4F1010499
:10504000D5F1200E0DDB02FA0EFC22FA05F28018D3
:1050500041F1000103FA0EF2801843FA05F35941B9
:105060000EE0A5F120050EF1200E012A03FA0EFC38
:1050700028BF4CF0020C43FA05F3C01851EBE37162
:1050800001F0004507D54FF0000EDCF1000C7EEB7F
:1050900000006EEB0101B1F5801F1BD3B1F5001FBD
:1050A0000CD349085FEA30004FEA3C0C04F10104DC
:1050B0004FEA445212F5800F80F09A80BCF1004F05
:1050C00008BF5FEA500C50F1000041EB045141EA87
:1050D000050130BD5FEA4C0C404141EB0101013C50
:1050E00028BFB1F5801FE9D291F0000F04BF01463F
:1050F0000020B1FA81F308BF2033A3F10B03B3F111
:1051000020020CDA0C3208DD02F1140CC2F10C02A0
:1051100001FA0CF021FA02F10CE002F11402D8BFFE
:10512000C2F1200C01FA02F120FA0CFCDCBF41EACA
:105130000C019040E41AA2BF01EB0451294330BD99
:105140006FEA04041F3C1CDA0C340EDC04F1140476
:10515000C4F1200220FA04F001FA02F340EA03004D
:1051600021FA04F345EA030130BDC4F10C04C4F193
:10517000200220FA02F001FA04F340EA0300294673
:1051800030BD21FA04F0294630BD94F0000F83F4BD
:10519000801306BF81F480110134013D4EE77FEAA0
:1051A000645C18BF7FEA655C29D094EA050F08BFEC
:1051B00090EA020F05D054EA000C04BF19461046CD
:1051C00030BD91EA030F1EBF0021002030BD5FEA11
:1051D000545C05D14000494128BF41F0004130BD39
:1051E00014F580043CBF01F5801130BD01F000458D
:1051F00045F0FE4141F470014FF0000030BD7FEA00
:10520000645C1ABF194610467FEA655C1CBF0B46FA
:10521000024650EA013406BF52EA033591EA030F11
:1052200041F4002130BD00BF90F0000F04BF002109
:10523000704730B54FF4806404F132044FF000053C
:105240004FF0000150E700BF90F0000F04BF0021B5
:10525000704730B54FF4806404F1320410F000451B
:1052600048BF40424FF000013EE700BF42004FEA16
:10527000E2014FEA31014FEA02701FBF12F07F4393
:1052800093F07F4F81F06051704732F07F4208BF4A
:10529000704793F07F4F04BF41F40021704730B551
:1052A0004FF4607401F0004521F000411CE700BF9D
:1052B00050EA010208BF704730B54FF000050AE020
:1052C00050EA010208BF704730B511F0004502D521
:1052D000404261EB41014FF4806404F132045FEA23
:1052E000915C3FF4D8AE4FF003025FEADC0C18BFCC
:1052F00003325FEADC0C18BF033202EBDC02C2F1BE
:10530000200300FA03FC20FA02F001FA03FE40EA4F
:105310000E0021FA02F11444BDE600BF70B54FF053
:10532000FF0C4CF4E06C1CEA11541DBF1CEA135531
:1053300094EA0C0F95EA0C0F00F0DEF82C4481EA99
:10534000030621EA4C5123EA4C5350EA013518BFB9
:1053500052EA033541F4801143F4801338D0A0FBA6
:1053600002CE4FF00005E1FB02E506F00042E0FB53
:1053700003E54FF00006E1FB03569CF0000F18BF59
:105380004EF0010EA4F1FF04B6F5007F64F5407401
:1053900004D25FEA4E0E6D4146EB060642EAC62194
:1053A00041EA55514FEAC52040EA5E504FEACE2E01
:1053B000B4F1FD0C88BFBCF5E06F1ED8BEF1004F04
:1053C00008BF5FEA500E50F1000041EB045170BD80
:1053D00006F0004646EA010140EA020081EA0301C4
:1053E000B4EB5C04C2BFD4EB0C0541EA045170BDC0
:1053F00041F480114FF0000E013C00F3AB8014F13A
:10540000360FDEBF002001F0004170BDC4F1000482
:10541000203C35DA0C341BDC04F11404C4F1200503
:1054200000FA05F320FA04F001FA05F240EA02005E
:1054300001F0004221F0004110EBD37021FA04F694
:1054400042EB06015EEA430E08BF20EAD37070BD4E
:10545000C4F10C04C4F1200500FA04F320FA05F0AD
:1054600001FA04F240EA020001F0004110EBD370AF
:1054700041F100015EEA430E08BF20EAD37070BD1F
:10548000C4F1200500FA05F24EEA020E20FA04F3F8
:1054900001FA05F243EA020321FA04F001F00041A7
:1054A00021FA04F220EA020000EBD3705EEA430E18
:1054B00008BF20EAD37070BD94F0000F0FD101F047
:1054C0000046400041EB010111F4801F08BF013C80
:1054D000F7D041EA060195F0000F18BF704703F0BE
:1054E0000046520043EB030313F4801F08BF013D45
:1054F000F7D043EA0603704794EA0C0F0CEA135501
:1055000018BF95EA0C0F0CD050EA410618BF52EABA
:105510004306D1D181EA030101F000414FF00000C0
:1055200070BD50EA410606BF1046194652EA4306CE
:1055300019D094EA0C0F02D150EA013613D195EA42
:105540000C0F05D152EA03361CBF104619460AD18A
:1055500081EA030101F0004141F0FE4141F4700194
:105560004FF0000070BD41F0FE4141F4780170BD84
:1055700070B54FF0FF0C4CF4E06C1CEA11541DBFE9
:105580001CEA135594EA0C0F95EA0C0F00F0A7F8EB
:10559000A4EB050481EA030E52EA03354FEA013118
:1055A00000F088804FEA03334FF0805545EA13132B
:1055B00043EA12634FEA022245EA111545EA1065F3
:1055C0004FEA00260EF000419D4208BF964244F18A
:1055D000FD0404F5407402D25B084FEA3202B61AA9
:1055E00065EB03055B084FEA32024FF480104FF47D
:1055F000002CB6EB020E75EB030E22BFB61A7546F1
:1056000040EA0C005B084FEA3202B6EB020E75EB83
:10561000030E22BFB61A754640EA5C005B084FEAEB
:105620003202B6EB020E75EB030E22BFB61A7546B8
:1056300040EA9C005B084FEA3202B6EB020E75EBC3
:10564000030E22BFB61A754640EADC0055EA060E84
:1056500018D04FEA051545EA16754FEA06164FEAC7
:10566000C30343EA52734FEAC2025FEA1C1CC0D173
:1056700011F4801F0BD141EA00014FF000004FF000
:10568000004CB6E711F4801F04BF01430020B4F1C1
:10569000FD0C88BFBCF5E06F3FF6AFAEB5EB030C79
:1056A00004BFB6EB020C5FEA500C50F1000041EB76
:1056B000045170BD0EF0004E4EEA113114EB5C0443
:1056C000C2BFD4EB0C0541EA045170BD41F4801116
:1056D0004FF0000E013C90E645EA060E8DE60CEA1E
:1056E000135594EA0C0F08BF95EA0C0F3FF43BAF3B
:1056F00094EA0C0F0AD150EA01347FF434AF95EAF2
:105700000C0F7FF425AF104619462CE795EA0C0FD5
:1057100006D152EA03353FF4FDAE1046194622E7A2
:1057200050EA410618BF52EA43067FF4C5AE50EA7C
:1057300041047FF40DAF52EA43057FF4EBAE12E76C
:105740004FEA410212F5001215D211D56FF47873A9
:10575000B3EB625212D94FEAC12343F0004343EA4C
:10576000505311F0004F23FA02F018BF4042704727
:105770004FF00000704750EA013005D111F00040B1
:1057800008BF6FF0004070474FF00000704700BF47
:10579000002301461A46184600F04CB80A449142CC
:1057A00000F1FF3300D1704710B511F8014B03F839
:1057B000014F9142F9D110BD02440346934200D1FA
:1057C000704703F8011BF9E738B5104B1D68AB6B48
:1057D0000446B3B91820FEF77FFE0246A86320B93D
:1057E0000B4B0C484221FEF787FE0B490B4BC0E9DF
:1057F00000130B4B83600B23838100210120C2E93E
:105800000401AB6B00221C615A6138BD3CE60320E9
:10581000915A0B00A85A0B000E33CDAB34126DE633
:10582000ECDE0500034613F8012B002AFBD1181A01
:10583000013870472DE9F843DFF8B8800646D8F8FC
:1058400000001F460D46914600F056F8254B1C6897
:1058500034B9254C1C60254B13B11B68C4F8883043
:1058600063681F2B07DDD8F8000000F047F84FF001
:10587000FF30BDE8F8834EB3D4F8880088B91C4BDC
:1058800023B9D8F8000000F038F8F0E74FF484703E
:10589000FEF722FE0028F4D00023C0E94033C4F80C
:1058A0008800636840F8239001229A4000EB83014E
:1058B000D0F800311343C0F80031022EC1F88070D7
:1058C00002BFD0F804311343C0F804316368D8F83C
:1058D00000005A1C0233626044F8235000F00EF8B6
:1058E0000020C6E7E8E703205CE703200000000093
:1058F000D9440B00A0E603207047704770470000B2
:1059000021400B005D400B0085400B0089400B00DF
:10591000000000006272696768746E65737300004E
:1059200000000000000000008F450B0085450B00C3
:105930007B450B0071450B0065450B0059450B007D
:1059400081470B0089470B004D450B0045450B0077
:105950003B450B0031450B00B9470B000000000030
:1059600000000000AD450B00F7450B00CF450B00D4
:10597000AF450B00D7450B00DF450B00E7450B009B
:10598000EF450B00000000000000000051460B0036
:1059900041460B0043460B006170700000000000A0
:1059A0000000000041470B004B470B0055470B0020
:1059B0005F470B0069470B0075470B0081470B00E1
:1059C00089470B0091470B009D470B00A5470B0033
:1059D000AF470B00B9470B0025592D256D2D2564C8
:1059E0005425483A254D3A2553257A00617363744E
:1059F000696D6500000000000000000091490B0087
:105A0000FD490B00D5490B00A5480B00A5490B002B
:105A1000C1490B00B3490B00CF490B0093490B0060
:105A200097490B0000000000000000003B4A0B00FB
:105A3000A34A0B00794A0B00A5480B006B4A0B00E8
:105A40003D4A0B004D4A0B009D4A0B005D4A0B007E
:105A5000354A0B000000000000000000934B0B00D3
:105A6000894B0B007F4B0B00354B0B00734B0B002E
:105A7000674B0B0081470B0089470B005B4B0B000A
:105A8000534B0B00494B0B003F4B0B00B9470B002E
:105A9000005245454E54206D616C6C6F63207375E8
:105AA00063636565646564002F746D702F6A656E4D
:105AB0006B696E732D4743432D31302D70697065CE
:105AC0006C696E652D34385F3230323031313234AA
:105AD0005F313630363138303633392F7372632FB9
:105AE0006E65776C69622F6E65776C69622F6C6981
:105AF00062632F7374646C69622F72616E642E63CB
:105B00000000000049410B0021450B0099450B00A6
:105B100031470B0091480B0039490B0059490B00E4
:105B20007D490B009D4B0B000000000000000000B1
:105B3000040000001400000003000000474E550060
:105B4000E9B650AC2C08E90789C43DAC96B94CC7FE
:045B500088CAC9BB7B
:045B5400000000004D
:105B5800EC590B0040E603200000000000000000A4
:105B6800000000000000000000000000000000002D
:105B7800000000000000000000000000000000001D
:105B8800000000000000000000000000000000000D
:105B980000000000000000000000000000000000FD
:105BA80000000000000000000000000000000000ED
:0C5BB8000000000000000000ECE70320EB
:105BC400FFFFFFFF00000102030405060708090A9E
:105BD4000B0C0D0E0F101112131415161718191A99
:085BE4001B1C1D1E1F202800E0
:045BEC0078563412A1
:04000003B0004020E9
:00000001FF
